:020000040800F2
:1000000000500020DD2F00082D3000082D300008A2
:100010002D3000082D3000082D30000800000000B1
:100020000000000000000000000000002D3000086B
:100030002D300008000000002D3000089D2A000827
:100040002D3000082D3000082D3000082D3000081C
:100050002D3000082D3000082D3000082D3000080C
:100060002D3000082D3000082D3000082D300008FC
:100070002D3000082D3000082D3000082D300008EC
:100080002D3000082D3000082D3000082D300008DC
:100090002D3000082D3000082D3000082D300008CC
:1000A0002D3000082D3000082D3000082D300008BC
:1000B0002D3000082D3000082D3000082D300008AC
:1000C0002D3000082D3000082D3000082D3000089C
:1000D0002D3000082D300008114A00082D3000088E
:1000E0002D3000082D3000082D30000800000000E1
:1000F0000000000000000000000000000000000000
:0C01000000000000000000005FF808F1A3
:1002000010B5054C237833B9044810B10448AFF356
:1002100000800121217010BD380000200000000086
:10022000F44A000808B5064B1BB106480649AFF36F
:1002300000800648016811B1054A02B1904708BD27
:1002400000000000F44A00083C00002038000020B4
:100250000000000080B582B000AF02460B46FA7184
:10026000BB71FA7940F20003C2F2000353F8222076
:10027000BB791046194602F0E7FB07F10807BD46B7
:1002800080BD00BF80B582B000AF0346FB7100F0B7
:100290005BFA03461A46F97944F60C33C0F60003BC
:1002A00053F821301340002B0CBF00230123DBB295
:1002B000184607F10807BD4680BD00BF80B584B071
:1002C00000AF0346FB71FB799AB207F10F031046AA
:1002D000194601F019FDFB7B184607F11007BD46D2
:1002E00080BD00BF80B582B000AF4FF00003BB718E
:1002F00000F07CF900F0E0F94FF00003FB7118E02A
:10030000FB799AB207F106031046194601F0DCFCAE
:10031000FB79032B09D8FB791846FFF7CFFF03467B
:10032000FA7910461946FFF795FFFB7903F10103AF
:10033000FB71FB79072BE3D907F10807BD4680BDA8
:1003400090B583B000AF4FF00003FB7119E0FA796C
:1003500040F27803C2F20003D318184601F0A8FC5B
:100360000346002B09D0FB791846FFF7A7FF034689
:10037000FA7910461946FFF76DFFFB7903F1010387
:10038000FB71FB79032BE2D94FF00403FB715FE0B3
:10039000FB79A3F10402FB79A3F1040140F25C03B1
:1003A000C2F20003595C40F25803C2F200039954B0
:1003B000FB79A3F10404FB79A3F10403DBB2184633
:1003C000FFF760FF03461A4640F25C03C2F20003E7
:1003D0001A55FB79A3F1040240F25C03C2F2000358
:1003E0009B5C002B30D0FB79A3F1040240F2580350
:1003F000C2F200039B5C002B26D1FB799AB207F175
:1004000006031046194601F07FFCBB7983F0010317
:10041000DBB2BB71FB799AB207F1060310461946AD
:1004200001F052FCFB799BB218464FF000014FF0EF
:10043000000200F057FFFB79A3F10403DAB2BB79A5
:1004400010461946FFF706FFFB7903F10103FB7124
:10045000FB79072B9CD907F10C07BD4690BD00BF67
:1004600080B582B000AF0346FB71FB7903F0010356
:10047000002B01D0FFF736FFFB7923F00103002B9F
:1004800001D0FFF75DFF4FF00D004FF0040100F0C9
:1004900091F907F10807BD4680BD00BF80B400AFE9
:1004A000BD4680BC704700BF80B400AFBD4680BC75
:1004B000704700BF80B582B000AF0346FB71FB7987
:1004C00003F00103002B01D0FFF7E8FFFB7923F0D5
:1004D0000103002B01D0FFF7E7FF4FF00C004FF0B6
:1004E000040100F049F907F10807BD4680BD00BFCF
:1004F00080B500AF02F072FA02F0FCFC02F002FDDF
:1005000000F0FAF902F0F6FC00F0A0F9FAE700BFFB
:1005100080B500AF40F27800C2F200004FF01C013D
:100520004FF0000200F048FA4FF001004FF00101D7
:1005300000F022F94FF00D004FF0010100F01CF91E
:1005400080BD00BF80B400AF41F2BA031846BD467B
:1005500080BC704780B400AF024B1846BD4680BCDB
:10056000704700BF0258000898B500AF44F610432A
:10057000C0F600031C68044800F0E8F90346A3F540
:100580008053E318184698BDE058000898B500AFAE
:1005900044F61043C0F600031C68044800F0D6F986
:1005A0000346A3F58053E318184698BDE4580008A5
:1005B00080B400AF024B1846BD4680BC704700BFF8
:1005C000CE58000880B400AF45F20043C0F60003E7
:1005D0001846BD4680BC704780B400AF45F60003A6
:1005E000C0F600031846BD4680BC704710B5194CD4
:1005F000012221461023184802F008FA214602225F
:100600001023164802F002FA21460422102314484F
:1006100002F0FCF9214608221023124802F0F6F9F4
:10062000102221461346104802F0F0F921462022FC
:1006300010230E4802F0EAF92146402210230C480C
:1006400002F0E4F90B48214680221023BDE8104057
:1006500002F0DCB90010014094000020E40000200A
:10066000D0000020F80000200C010020A80000208D
:1006700020010020BC00002007B52020012102F04D
:1006800095FC04210223ADF804108DF807100748EB
:1006900069448DF8063002F0C5FB054805494FF462
:1006A0008072082302F0B2F90EBD00BF00140140B1
:1006B00034010020000C0140F7B5012602AC174DB3
:1006C0000427082001218DF8077002F06FFC24F840
:1006D000046D2846214602F0A5FB0820314602F0B1
:1006E00065FC022328462146ADF8043002F09AFB4F
:1006F0000820314602F05AFC28462146ADF8047025
:1007000002F090FB0820314602F050FC2020ADF8AA
:1007100004002146284602F085FBFEBD000C014086
:10072000042108B5034802F0CDFBD0F1010038BF29
:10073000002008BD001401400146024801B101211A
:1007400002F082B9340100200A4B98689A6800F0E0
:10075000010181F00100910701D4023080B2996853
:100760004A0701D4021D90B29B689B0601D4083051
:1007700080B27047000C014070B504460E4602F08E
:10078000F4FA0546102002F0F3FA084B08481A194B
:10079000D1790E43D67130F814101A8841EA02005C
:1007A00018802846BDE8704002F0E2BA48010020F7
:1007B000A84C0008034B1A78012A01D1FFF7DCBFCF
:1007C000704700BFDE02002038B5044602F0CDFAC3
:1007D0000546102002F0CCFA044B00221819C47907
:1007E000C271284602F0C4FA204638BD48010020F4
:1007F000144B154A10B532F810405A8811F0010F09
:1008000001F0020114BF2243A243C9B25A800D4B2A
:100810000D4A29B132F810009A8840EA020104E03A
:1008200032F81000998821EA000199805B88054917
:1008300023B9888810B902238B7110BD01490122A8
:100840008A7110BD48010020A84C0008244838B522
:100850000288002A41D0234B234993F90000A8B114
:1008600001240C7000240C236343204AD05AFF2833
:100870000DD01F4A1A4932F810304A881A4202D065
:100880000821FFF779FF601C84B2ECE70870144878
:10089000018821B912480188F9B1002038BD00242F
:1008A00004800C236343114AD05AD518FF28F1D095
:1008B000FFF78AFF2D8905F0020293B21BB10D49A3
:1008C0000D78012D06D128B1084B0C2202FB043112
:1008D0004D68A8470134A4B2E3E7807938BD00BF72
:1008E000480100206C01002062010020184C000823
:1008F000A84C0008DE0200200D4A002310B513802A
:10090000538093801C460C2262430A488118805A07
:10091000FF2808D00B89DB0702D50121FFF72CFF48
:100920000134A4B2EFE7BDE81040FFF78FBF00BF6E
:1009300048010020184C00080278437803EB02209D
:1009400080B270470B0A0370417070474378027899
:10095000190401EB0263C2788078991801EB00203A
:10096000704730B500239CB2944208D2C45C013376
:10097000CD1815F8015CA542F5D0002030BD01204E
:1009800030BD70B506460C4608461146154602F0C5
:10099000C3F830B1304621462A46BDE8704002F027
:1009A000B5B803469AB2AA4203D2F05CE0540133D0
:1009B000F8E770BD02F0AEB870B505460C461646B5
:1009C00002F0AAF830B1304629462246BDE8704010
:1009D00002F09EB803469AB2A24202D2EE5401330C
:1009E000F9E770BD10B502F0C0F90446102002F01E
:1009F000BFF90B4A137873B90121117009480A4AEB
:100A00000A49036013600B80094A0A4918461370AB
:100A10000B70094B18702046BDE8104002F0A8B9D1
:100A200054000020680100206401002060010020C3
:100A3000630100206C0100206201002038B50446EB
:100A400002F093F90546102002F092F904F002003A
:100A5000C1B209B9044B00E0044B1C68284602F0FF
:100A600087F9204638BD00BF6801002064010020DE
:100A7000194B10B51A6819490446801818600B788C
:100A8000E218D0B208700B78632B07D90A78643A61
:100A9000D0B2087005202021FFF76EFE10490B88A8
:100AA000E418A4B20C800A8890B2B0F57A7F08D31B
:100AB0000B88A3F57A7290B208800A490B685A1C19
:100AC0000A600948017829B106200421BDE81040D8
:100AD000FFF752BE10BD00BF680100206301002077
:100AE00060010020640100206D010020C30710B5E3
:100AF000044601D5FFF776FF04F00403D8B230B105
:100B00000A4900220A7005201021FFF735FE04F083
:100B10002004E4B244B1054B0120187004210520E3
:100B2000BDE81040FFF728BE10BD00BF6C010020DB
:100B300000F0060008B506281AD8DFE800F004190E
:100B400006190A190F00002000E00220FFF776FFC7
:100B50000BE00220FFF772FF3C2304E00220FFF7C6
:100B60006DFF4FF46163B0FBF3F04104480C08BD26
:100B7000002008BD10B502F0F8F80446102002F07D
:100B8000F7F80D4B1A780023D9B2914207D20B49DE
:100B9000062000FB0311002008710133F4E7062052
:100BA0000021FFF725FE0648002202702046BDE81E
:100BB000104002F0DDB800BF164C000860000020B5
:100BC0006D010020054B1978814205D9044B06229E
:100BD00002FB003000210171704700BF164C000875
:100BE000600000201E4B2DE9F0410D461978144697
:100BF000814233D91F2D0BD812F0060208D0194EAE
:100C0000023C36F8127064F07F037D43DCB2ADB273
:100C100006274743DFF8548004F04000C1B207EBD9
:100C2000080649B145B9307920F0030131710D2032
:100C30002021FFF7BFFD0AE02046FFF779FF0123DF
:100C400020F4004228F80720758074713371062063
:100C50000221FFF7CDFD044B01221A70BDE8F0819F
:100C6000164C0008CC4C00086D01002060000020EC
:100C7000094B197881420DD9084B062202FB00313D
:100C80000B7903F00200C0B228B123F002020A710E
:100C90000120704700207047164C000860000020BB
:100CA0003E4B2DE9F04700261E703D480178B142C9
:100CB00068D906277743DFF8EC8007EB0804207932
:100CC000C20745D502F051F88246102002F050F8D4
:100CD00032490125B4F8029050460D7037F808509B
:100CE00002F046F86079FFF723FFB9F1000F0BD04F
:100CF00005EB0903834201DC854205D900F500427A
:100D0000934225DC854223D902F02FF88246102039
:100D100002F02EF837F80800A84216D10D20202145
:100D2000FFF748FD20210320FFF726FD6179CB075F
:100D300002D40220207108E023794D4443F00202DE
:100D400025F40045227128F80750504602F010F8AB
:100D5000617901F00803DAB28AB1207900F002016A
:100D6000CBB263B102F001F80546102002F000F8A2
:100D70000022227101F07EFF284601F0F9FF0136C2
:100D8000F6B292E7054A06201378002B14BF022121
:100D90000021BDE8F047FFF72BBD00BF6D0100202B
:100DA000164C000860000020C10710B5044601D5AC
:100DB000FFF7E0FE04F00400C4B21CB1BDE810402F
:100DC000FFF76EBF10BD08B5002000F0CDFE00207B
:100DD00008BD000008B5054B092218680270002004
:100DE00000F0C2FE003018BF012008BDD002002074
:100DF0000A4B10B51C68FFF7E5FB0622014604F11B
:100E00000A00FFF7AEFD40B104F1100004210022FA
:100E1000FFF7D2FD13202070012010BDD00200206A
:100E2000064B10B51C68FFF7CDFB0A3401460622BD
:100E30002046FFF796FD002010BD00BFD002002025
:100E4000024A034800231370037070476E010020AC
:100E5000DD020020C30701D5FFF7F2BF7047000095
:100E6000142802D8044B185C7047FF2802D00638BB
:100E7000C0B27047FC207047404D000870B5104C60
:100E80000546E07AFFF7ECFF236806461A7842F041
:100E900028001870616828463246FFF762FD20B9C5
:100EA00021680B7843F010020A70284661683246C8
:100EB000FFF767FD0D201021BDE87040FFF77ABCF9
:100EC000780100202DE9F34104460D46164600F056
:100ED000A5FD0228074600F2AB8045EA002085B256
:100EE0000021204600F0B4FDB4F84230A178B342AE
:100EF00014BFADB245F480554F48CA07627A58BF57
:100F000045F4005593060368827A197822F023008D
:100F100001F0030108BF45F0200501430D43002205
:100F20004FF0060E0EFB02FE444901EB0E00408816
:100F30008C4620B131F80E102840814210D1062095
:100F400000FB02C529794A1E0E2A69D8DFE802F0A3
:100F50000B1A494D6868576A6668686852524500BE
:100F60000132D2B2DCE7344DE87AFFF779FF297B12
:100F700022780818431E9A4252D160183146FFF772
:100F80007DFF4DE030460DF1060101F02FF90028FC
:100F900046D0294DBDF80610601DFFF7D3FCE87A56
:100FA000FFF75EFF2F7B7B1EC0182070E87AFFF7EB
:100FB00057FF95F80C806F68A044024641463846BA
:100FC000FFF7DFFC1E49722262708D79A4F842603F
:100FD0006B1C8B711125012725E01D7845F0200140
:100FE00019701D786FF3010503E01D78012161F38D
:100FF00001051D7001200421FFF7DCFB10E00E4D00
:10100000E87AFFF72DFF2B7B21781818421E9142BA
:1010100008D1E0183146FFF731FF03E0112502E067
:10102000002500E001252046394600F011FD00E0D2
:1010300000252846BDE8FC8178010020DA4C000834
:101040007001002073B5002504460E46ADF804502B
:10105000184B187801281FD1601DFFF76DFC0DF1AA
:10106000060101AA01F012F8B0B1BDF8060012495C
:1010700001F09CF980B131462046BDF80620FFF70B
:1010800021FF00F0F0011029054605D0BDF804202D
:10109000531CADF80430DBE715F00F0505D0012D2A
:1010A00006D1204600F013FC02E0204600F044FC8C
:1010B0007CBD00BFDE02002078010020024B002131
:1010C0001868FFF7BFBF00BFD0020020054B9A7918
:1010D0000AB1501E9871044908684FF40061FFF787
:1010E000B1BF00BF70010020D0020020024B4FF4BE
:1010F00080611868FFF7A6BFD002002038B5012034
:101100000B4B002401469C709C80FFF771FB094D3E
:101110002046294601F04AF938B1286800220270B9
:10112000013401F0E7FEA4B2F1E70149887138BD4E
:101130007001002078010020514B2DE9F3419A788D
:10114000002A00F09B804F480178012940F09680EA
:101150009E79002E40F09280494C208801F048F999
:1011600068B903462080A078022801D1A37085E0E9
:101170000221A17001200421FFF71CFB7EE003780F
:1011800003F00300032868D1A778012F08BF0020CF
:10119000A0703B4F3C4C3888214601F007F9388855
:1011A0000DF1060101F022F8002850D0A27A02F0D9
:1011B000440144294BD100F065FB054600284CD082
:1011C000A17A01F0030100F092FC681DBDF8061041
:1011D000FFF7B8FB3B882068A5F84230027802F0A0
:1011E0000401CBB223B1092129702846002114E063
:1011F000E07AFFF735FE277B7A1E80182870E07AA8
:10120000FFF72EFE94F80C806768A844024641461A
:101210003846FFF7B6FB2846022100F019FC184AB1
:101220009379581CC1B2917119B901200421FFF7BB
:10123000C1FA154A022113687222187861F301007D
:1012400018706A70284600F042FB012306E023680C
:101250000122187862F30100187000230136B6B23B
:10126000322E04D901200421FFF7A4FA01230448F7
:1012700001884A1C0280002B3FF46EAFBDE8FC8160
:1012800070010020DE0200207801002013B50C4917
:1012900000230A780446012AADF8043001D000206A
:1012A0000DE0084901F082F80128F8D120460DF13F
:1012B000060101AA00F02AFF431E584258411CBDF6
:1012C000DE02002078010020054B9A7812B91880C0
:1012D000012000E00320987004210120FFF76ABA82
:1012E0007001002070B5114B0D4619780446012994
:1012F000164601D0002070BD01F07AF80028F9D020
:10130000027802F00303012B01D9002EF2D0003540
:10131000017818BF012565F38201CAB242F00303C8
:1013200003702046FFF7D0FF012070BDDE020020D1
:1013300038B51E4B4FF6FF709A8882420ED138BDE9
:101340002B6800221A70A87A00F02001CBB273B982
:10135000164CA588681CA08001F0CCFD134C144DE0
:10136000A088294601F022F80028E9D11AE02A686D
:10137000107800F02001CBB2002BE9D100F003027D
:10138000012AE5D8A088FFF781FF0028E0D029686E
:101390000B7843F007020A70A088FFF795FFA0883A
:1013A000411C01E04FF6FF71A18038BD70010020A3
:1013B00078010020C30710B5044601D5FFF79EFE53
:1013C00004F00403D8B208B1FFF7B6FE04F0080138
:1013D000CCB22CB1FFF7ACFFBDE81040FFF7ACBEBC
:1013E00010BD00000B4B70B504460D460530198842
:1013F0001646FFF7A7FA2046294600F061FB204673
:10140000314600F06DFB212060702046BDE8704041
:1014100000F05DBA8801002070B50D460021044639
:10142000164600F064FB0823204629463246237006
:10143000BDE87040FFF7D6BFF8B50D46044600285A
:1014400035D000F033FB2843C5B2E01CFFF774FA37
:101450009D4B1A881E468242204608BF45F480757F
:1014600000F03AFBB17A8142204608BF45F400758E
:1014700000F032FB944B9A7A511E01F00F03984210
:10148000204608BF45F4806500F026FB08B945F406
:101490008045204600F020FB8B4AD17A8142A0781B
:1014A00008BF45F40065C30758BF45F40055002345
:1014B000864A02EBC3014988104621B132F8332035
:1014C00029408A420BD1804D697A01EBC302801812
:1014D0000379C3F30201D808697203D004E0013331
:1014E000DBB2E5E7FCB9F8BD142800F2E280DFE8E2
:1014F00010F017001E00290044004B005400620049
:10150000740089009C00B800CF00E000E000E0001B
:10151000E000D200D400E000E0001500002712E057
:10152000002C00F0C680204600F006FAC1E0E01C66
:10153000FFF702FA00233C226A732880EB72AB7239
:101540008522B2E0012700F09DF90646002800F050
:10155000B0805D4D0FB13C206873892363702046D5
:1015600000F0B5F93046C221AA7AFFF755FFAA7AF2
:10157000511C01F00F00A8729BE0204600F0ACFA6D
:10158000C2210246204605E0204600F0A5FAC3210C
:1015900002462046FFF740FF8BE0204600F0CCF9E2
:1015A000686800246C73002800F0838000F0C4F9A0
:1015B00045494C607DE0686800266E7318B100F004
:1015C000BBF9414A566024B900F05CF90446002892
:1015D0006FD0204681210022DCE700F053F901465C
:1015E000686048B120464422FFF7CBF9364A2046CE
:1015F0004021D27AFFF7F6FE334900201E230873FC
:101600004B7356E0EB7A3C20591C687301F00F02D3
:101610002046EA7200F090F96868002849D000F08E
:101620008BF9294B0020586043E01CB900F02AF9DF
:10163000044678B1686850B121464422FFF7A1F909
:10164000214A20464021D27AFFF7CCFE02E0204614
:1016500000F072F91C481E23017B43734A1C02737D
:1016600027E0E01CFFF768F90146601DFFF76AF903
:101670002046002100F03BFA0821217020468121FC
:1016800000F01EFA2046002100F02AFA21220CE088
:10169000412363700DE0942207E0601DFFF74CF9D1
:1016A0000146E01CFFF74EF99C226270204600F0D4
:1016B0000EF9054907204B7A191C18BF0121BDE816
:1016C000F840FFF795B800BF88010020564D00088C
:1016D000024B00225A725A731A7270478801002016
:1016E000024B04211868FFF7A7BE00BFD0020020FC
:1016F000024B0C211868FFF79FBE00BFD0020020EC
:10170000054B587B30B1411EC8B2587310B918212F
:10171000FFF792BE704700BF88010020C20710B5D6
:10172000044601D5FFF7D4FF04F00800C4B21CB191
:10173000BDE81040FFF7E4BF10BD00000B4B10B533
:101740001C68E01CFFF7F8F80146601DFFF7FAF887
:101750002046002100F0B4F92046002100F0C0F935
:101760002046BDE8104000F0B2B800BFD002002013
:1017700038B5044601F0F9FA0546102001F0F8FAF0
:10178000074B04F1480003EB80014C681CB1626C0C
:1017900000204A606064284601F0EAFA204638BD1D
:1017A0009801002070B50C46054601F0DEFA0646A9
:1017B000102001F0DDFA0948002300EB8501636485
:1017C00001F592731A6812B102F14403FAE7304648
:1017D0001C60BDE8704001F0CBBA00BF980100204A
:1017E00002460120064B03EB8001D1F824319342DD
:1017F00004D00130C0B20528F4D1FF20704700BFEB
:101800009801002038B501F0B0FA0546102001F02B
:10181000AFFA0E4B00242846C3F82441C3F82841F0
:10182000C3F82C41C3F83041C3F8344101F0A0FAA9
:10183000064D482101FB04520020111D0134FFF721
:10184000B1FF042CF4D10120287038BD980100208C
:1018500010B501F08AFA0446102001F089FA084B0D
:1018600000222046C3F82421C3F82821C3F82C21E4
:10187000C3F83021C3F83421BDE8104001F078BA34
:101880009801002008B50020FFF772FF28B100235F
:101890000022C2540133442BFAD108BD38B50C469E
:1018A000054698B1042911D8FFF79AFFA04207D046
:1018B000FF2801D0FFF75CFF20462946FFF772FFA3
:1018C00000200421BDE83840FEF756BF38BDB8B14E
:1018D0004178412911D005D8A1F11103012B05D878
:1018E00001210BE0A1F14302012A06D901F0F00128
:1018F000F02914BF0421032100E00221FFF7CEBF2D
:10190000704700000B4B10B519780B46581CC3B23A
:10191000084A042B88BF012302EB8304D4F8244136
:101920000CB98B42F2D1002004211370FEF724FF82
:10193000204610BD9801002070B50446B8B10025BE
:101940004570FFF74DFFFF280BD0FFF711FF01F0A7
:101950000CFA0646102001F00BFA6564304601F0DF
:1019600007FA00202146BDE87040FFF71BBF70BD9D
:1019700010B5FFF7C7FF0C4C0346206090B10B4831
:10198000597800F038F840B1416859B1427823687D
:101990005A7041680089884710BD2068BDE8104032
:1019A000FFF7CABF10BD00BFD0020020E44F0008FF
:1019B000054B03EB8102D2F82431834202D1084661
:1019C000FFF7D6BE704700BF98010020C30710B5CF
:1019D000044601D5FFF716FF04F00203D8B208B1A0
:1019E000FFF736FF04F00401CCB21CB1BDE8104093
:1019F000FFF7BEBF10BD10B5034600220C245443B0
:101A000018191C5DFF2C04D08C4206D0501CC2B2A9
:101A1000F4E74368002BF0D1184610BD10B504461A
:101A200000F10800FEF788FFC0F383100B2804BF05
:101A3000607A00F0BF000F2808BF607A072806D13F
:101A4000637A03F03F02072AC8BF03F07F0010BD8E
:101A500038B501F0C003802B0C4612D0C02B16D035
:101A6000402B19D000F108052846FEF765FF20F449
:101A7000707040EA841189B22846BDE83840FEF70C
:101A800061BF017A21F0030242F0020109E0027A0B
:101A900042F00303037207E0027A22F0030343F0EB
:101AA0000101017264F03F04447238BD037A03F00F
:101AB000C000802801D0C02801D103F0C3007047C6
:101AC000027A21B1402914BF3C233F2300E03F2389
:101AD0001340194301727047007AC0F383007047C6
:101AE000037A23F03C0242EA810101727047837855
:101AF00023F00C0242EA81018170704738B5C47945
:101B0000054604F08F04802C0BD10530FEF714FF3E
:101B100038B9A87800F01001CAB2002A14BF902486
:101B20009124204638BD00000E4B10B55C6864B1AE
:101B30005A78501C00F03F014A085970012303FAFB
:101B400002F020420CBF00240124002000F00CF819
:101B500010B184F00104E4B260B2BDE81040FEF7B9
:101B6000EBBD00BFD402002008B500F00403D9B2D9
:101B700041B1134B1A78C2F3400181F0010161F3C6
:101B800041021A7000F00203DAB222B10C490B785C
:101B900060F341030B7010F0060F0BD0FFF7C4FF8A
:101BA00007480278C2F3400001F0D8FA0920042166
:101BB000FEF7E2FD02490B78C3F3400008BD00BF09
:101BC000D402002008B501F053F8074B5A6818B941
:101BD00042B94FF0011003E0B2F1011F02D1002021
:101BE000586008BD08BD00BFD402002038B5FEF71C
:101BF00097FD051C18BF01250A4C2DB12378DB0782
:101C000002D40420FFF7B0FF207865F300002070B5
:101C1000FFF7D8FFFFF788FF09200121BDE8384012
:101C2000FEF7E6BDD402002008B5FEF725FD094BFE
:101C3000002219785A7001F0F20062F34100187026
:101C4000012109205A60FEF7D3FDBDE80840FFF7E7
:101C50006BBF00BFD4020020C20710B5044601D5F7
:101C6000FFF7E2FF04F00403D8B218B1FFF7AAFFB0
:101C7000FFF75AFF04F00801CAB20AB1FFF7B6FF36
:101C800004F01003D8B210B10420FFF76DFF04F088
:101C90002001CAB212B10020FFF766FF04F0400431
:101CA000E4B224B10220BDE81040FFF75DBF10BDD3
:101CB000027802F00803D9B221B16FF3C3020270B7
:101CC0000120704708467047F8B50D4B0E4619784D
:101CD000012901D0002010E00A4C214600F066FBEB
:101CE00001280546F6D1E07A6768FFF7B9F839466A
:101CF00002463046FEF745FE284640B2F8BD00BF1A
:101D0000DE02002078010020F8B50D4B0E46197850
:101D1000012901D0002010E00A4C214600F046FBCA
:101D200001280546F6D1E07A6768FFF799F8314651
:101D300002463846FEF725FE284640B2F8BD00BFF1
:101D4000DE020020780100200A78032A02D903224B
:101D50000A700BE0062809D8054B02EB800203EB62
:101D6000420013F8123040780B7070470020704723
:101D7000F64D000808B50C49FFF7E6FF022809D028
:101D800003280AD001280ED1084B1A7842F001002E
:101D9000187002E00420202101E004200146BDE883
:101DA0000840FEF7E9BC08BDDE020020DD0200208D
:101DB00008B518B10878FFF7DDFF02E0024B18788C
:101DC0000870012008BD00BFDE0200200149FFF7B6
:101DD000BBBF00BFDF02002008B518B10878FFF7CD
:101DE000F5FF02E0024B58780870012008BD00BFE3
:101DF000DE0200200848094B817E002201291A706A
:101E000007D1074A107800F00401CAB20AB90220CB
:101E10001870002159707047D8580008DE02002061
:101E20006E01002008B5FEF795FB023008BD0000EA
:101E3000F7B50DF1060100F01FFF802840D1274CB7
:101E4000E57D012D47D1264B187800F00401CAB278
:101E5000002A40D1FEF77EFB0646FEF76DFD08B96D
:101E60000C2039E0201DFEF771FD377880B27B0031
:101E7000591C01F045F9074620B904F1170001F09B
:101E8000D3FE28E03046FEF757FD0446FEF762FB1E
:101E900004F00F040746A5421DD86619701086B2DB
:101EA00007EB4000FEF748FDBDF806108842D7D08A
:101EB000814202D2721E94B2EDE7751CADB2EAE720
:101EC00038B9BDF80640FEF787FBFEF735FD8442C2
:101ED00000E09028C4D00020FEBD00BFD858000804
:101EE0006E010020F8B50C460646FEF733FB0121D3
:101EF0000546218028462788FEF71EFD874209D81F
:101F0000208805EB4000FEF717FD864204D02388A9
:101F1000591CEEE70020F8BD0120F8BD70B504465D
:101F20000D46FEF717FB0646FEF706FD844207D86E
:101F300044B106EB4400FEF7FFFC2880012002E0DC
:101F4000002000E0204640B270BD0000F8B51E4FF2
:101F5000FD7D012D36D11D4B1E7806F00400C6B262
:101F6000002E2FD1FEF7F6FA0446FEF7E5FC102806
:101F700004D91748BDE8F84001F056BE2046FEF7E8
:101F8000DBFCF8B1381DFEF7E1FC07462046FEF702
:101F9000D3FC411C4A0091B2B8B201F0B1F800285C
:101FA000E7D02046FEF7C8FC04340746BD4209D2FC
:101FB0002046FEF7C1FC0234B042DAD90135ADB299
:101FC0000646F3E7F8BD00BFD85800086E010020B0
:101FD000EF58000837B5FEF7BDFA0B4C0546204612
:101FE000FEF7B4FC0146284601F0C4F801460DF1A5
:101FF0000600FEF7A7FC0DF10600A11D0222FEF768
:10200000C0FCFFF7A3FF3EBD0C590008704700005D
:10201000F7B5861C04463046FEF798FC0546FEF7E9
:10202000A3FA0746FEF796FA381A854202D8B5F5A4
:10203000803F03D3104801F0F7FD1CE0A379DB07D4
:1020400005D5FEF787FAA9B2E279FEF7B5FC30466E
:1020500069460422FEF795FCFF2200218DF804104A
:102060008DF805208DF806208DF807206846034975
:102070000822FEF786FCFEBDEF5800080C59000848
:1020800008B5FEF771FA023008BD00002DE9F843EB
:102090001C4B07461D7E8846012D144601D00023A7
:1020A0002CE01948017801F00402D3B2002BF6D1DC
:1020B000FEF75AFA0646FEF73FFC10F00F0909D169
:1020C0002288002AEBD1013FA8F80070258014E097
:1020D000531C238020884845E1D206EB8001881CF0
:1020E000FEF72AFCB8422288F2D106EB82000430C7
:1020F000FEF722FC411EA8F80010012358B2BDE8EB
:10210000F88300BFD85800086E0100202DE9F8437D
:102110001C4B07461D7E8846012D144601D0002326
:102120002CE01948017801F00402D3B2002BF6D15B
:10213000FEF71AFA0646FEF7FFFB10F00F0909D169
:102140002288002AEBD10137A8F80070258014E01E
:10215000581C208020884845E1D206EB8001081DEC
:10216000FEF7EAFB7A1C90422388F1D106EB83014B
:10217000881CFEF7E1FBA8F80000012358B2BDE877
:10218000F88300BFD85800086E0100202DE9F843FD
:10219000144B81461F7E0E46012F01D000201EE009
:1021A0001148047804F00401CCB2002CF6D1FEF7FB
:1021B000DBF98046FEF7C0FB054608B930800DE02C
:1021C000A7B2AF42EAD208EB8402101DFEF7B4FBBF
:1021D00009F1010301348342F2D13780012040B27A
:1021E000BDE8F883D85800086E010020154B73B580
:1021F0001C7E0646012C0D4601D0002220E012482C
:10220000017801F00402D3B2002BF6D1FEF7ACF94D
:10221000FEF792FB10B901362E8010E030460DF12A
:102220000601FFF7B3FF0028E7D0FEF79DF9BDF8E0
:10223000061000EB81000230FEF77EFB288022466C
:1022400050B27CBDD85800086E01002038B5134C40
:10225000237E012B21D11248017801F00402D3B270
:10226000DBB9FEF781F90546FEF766FB0F2804D9B6
:102270000C48BDE8384001F0D7BC04F10800FEF777
:1022800065FB04462846FEF757FB8000811C89B297
:10229000A0B200F035FF0028EAD038BDD8580008B9
:1022A0006E010020F058000837B5FEF75DF90B4CC1
:1022B00005462046FEF74AFB0146284600F05AFF35
:1022C00001460DF10600FEF73DFB0DF10600A11DD4
:1022D0000222FEF756FBFFF7B9FF3EBD1459000876
:1022E00070470000F7B5861C04463046FEF72EFB0B
:1022F0000546FEF74BF90746FEF736F9381A8542D0
:1023000002D8B5F5803F03D3104801F08DFC1CE0E6
:10231000A379DB0705D5FEF727F9A9B2E279FEF725
:102320004BFB304669460422FEF72BFBFF220021BF
:102330008DF804108DF805208DF806208DF8072003
:10234000684603490822FEF71CFBFEBDF058000852
:102350001459000808B5FEF719F9023008BD00004D
:1023600038B505460E48837E012B15D10D490A78F4
:1023700002F00404E3B27BB90C30FEF7E7FA0A4935
:10238000A0F580500A680E2D02EB000404D8204608
:10239000FEF7D2FA854200D30024204638BD00BFA4
:1023A000D85800086E010020104C000838B50546CA
:1023B0000C46FFF7D5FFA0B10B4B00EB45001968A9
:1023C00025814A1922608378084AA372C17852F89D
:1023D000250005298CBF0A2309236060E17223735D
:1023E000012040B238BD00BF2C4B0008304B000824
:1023F00010B50446FFF7B4FF10B1024B186800197E
:1024000010BD00BF2C4B000838B5184D1848FEF71A
:102410009DFAAB7E012B27D116490A7802F00403FE
:10242000D9B2002920D1A0F58054134802681419AC
:102430002046FEF781FA114B1988814204D01048DA
:10244000BDE8384001F0F0BB05F10C00FEF77EFA64
:1024500005462046FEF770FA0130420091B2A8B25C
:1024600000F04EFE0028EAD038BD00BFD858000862
:10247000E45800086E010020104C0008144C0008BD
:10248000F258000837B5FEF781F80B4C0546204698
:10249000FEF75CFA0146284600F06CFE01460DF19D
:1024A0000600FEF74FFA0DF10600A11D0222FEF70D
:1024B00068FAFFF7A9FF3EBD1C59000870470000ED
:1024C000F7B5861C04463046FEF740FA0546FEF78F
:1024D0006FF80746FEF75AF8381A854202D8B5F564
:1024E000803F03D3104801F09FFB1CE0A379DB077A
:1024F00005D5FEF74BF8A9B2E279FEF75DFA304652
:1025000069460422FEF73DFAFF2200218DF80410EF
:102510008DF805208DF806208DF8072068460349C0
:102520000822FEF72EFAFEBDF15800081C590008DB
:1025300000487047D858000810B50C4640B10B78D9
:1025400013F0010F0CBF02200320FFF70DFB05E085
:10255000FFF70AFB003018BF01202070012010BDDA
:1025600010B511494FF48072044601F065FB032851
:1025700014D005D8022815D1BDE81040FFF72ABDB8
:102580004B2806D0FF280DD10748BDE8104001F0C8
:102590004BBB2046BDE81040FFF73ABDBDE81040F8
:1025A000FFF734BD10BD00BFEF58000808B518B1E3
:1025B0000846FFF7D5FF02E0024BD87D08700120E6
:1025C00008BD00BFD858000810B511494FF400727B
:1025D000044601F031FB032814D005D8022815D198
:1025E000BDE81040FFF760BE4B2806D0FF280DD194
:1025F0000748BDE8104001F017BB2046BDE8104079
:10260000FFF770BEBDE81040FFF76ABE10BD00BF07
:10261000F058000808B518B10846FFF7D5FF02E0EA
:10262000024B187E0870012008BD00BFD858000872
:1026300010B511494FF41062044601F0FDFA032869
:1026400014D005D8022815D1BDE81040FFF71ABFF5
:102650004B2806D0FF280DD10748BDE8104001F0F7
:10266000E3BA2046BDE81040FFF72ABFBDE810409E
:10267000FFF724BF10BD00BFF158000808B518B11E
:102680000846FFF7D5FF02E0024B587E0870012094
:1026900008BD00BFD858000870B525494FF44072F6
:1026A000044601F0C9FA422812D007D8022829D0DE
:1026B00003283CD100F00AF9042026E04B282CD056
:1026C000FF282FD0452832D1201D1A49022220E0B0
:1026D000A51C022217492846FEF753F9FDF732FFE1
:1026E00006462846FEF728F9864202D0104801F037
:1026F0009BFA201D10490122FEF743F9601D0F4986
:10270000052206E000F0C6F80320BDE87040FFF7A0
:1027100031BBBDE87040FEF734B92046BDE87040DB
:1027200000F0D6B80248BDE8704001F07DBA70BD37
:10273000F2580008E4580008EC580008F458000863
:1027400008B518B10846FFF7A7FF02E0024B987ED4
:102750000870012008BD00BFD858000810B5114905
:102760004FF48062044601F067FA032814D003D8BE
:10277000022816D1032010E0422806D0FF2810D1ED
:102780000848BDE8104001F04FBA0749601D052216
:10279000BDE81040FEF7F5B80420BDE81040FFF793
:1027A00015BB10BDF3580008F958000808B518B15A
:1027B0000846FFF7D3FF02E0024BD87E08700120E5
:1027C00008BD00BFD85800080A4B9A7E012A10D1D4
:1027D0000948017801F00402D0B250B919781A7F83
:1027E000914203D158785B7F984202D0034801F0B0
:1027F0001BBA7047D85800086E010020F258000834
:1028000008B5FEF7D7F8FFF7F5FA04200146FDF703
:10281000B3FF044B0A22042001211A70BDE80840CE
:10282000FDF7E6BFE0020020164B10B5186810F067
:10283000FF0F05D1FFF78AFBFFF708FDFFF7E4FD67
:1028400011498A7E012A09D1104C237803F0040033
:10285000C1B219B90320FFF78DFA05E004200C4C32
:10286000FFF788FA0A222270094B1C7844B9052028
:10287000FFF780FA04202146BDE81040FDF7B8BFFD
:1028800010BD00BF68010020D85800086E0100206C
:10289000E002002037B5FDF78BFE0B4C05462046C5
:1028A000FEF754F80146284600F064FC01460DF19D
:1028B0000600FEF747F80DF10600A11D0222FEF703
:1028C00060F8FFF781FF3EBD245900087047000003
:1028D00073B5861C04463046FEF738F8B0F5803FE5
:1028E000054603D3104801F09FF91CE0042230464E
:1028F0006946FEF746F8FF2000238DF805008DF8A5
:1029000006008DF807000949082268468DF8043052
:10291000FEF737F8A179CB0705D5FDF749FEA9B237
:10292000E279FEF749F87CBDF25800082459000806
:1029300010B50F4CE37D032B03D904F1170001F010
:1029400073F9207E032802D90A4801F06DF9A17EAF
:10295000032902D9084801F067F90548C27E032A15
:1029600004D91B30BDE8104001F05EB910BD00BFB6
:10297000D8580008F0580008F2580008C10710B5F0
:10298000044601D5FFF73CFF14F00C0F01D0FFF710
:102990004BFF04F00803D8B220B10F490A780AB1FE
:1029A000531E0B7004F01000C1B209B1FFF7C0FF55
:1029B00004F02002D3B20BB1FDF7AAFD04F04000F1
:1029C000C1B209B100F012F8220603D5BDE81040EB
:1029D000FFF72ABF10BD00BFE002002008B500F0DD
:1029E00041F800F05EF862B608BD0000054A064BEB
:1029F000D16801F4E06040EA0301D160BFF34F8F7A
:102A0000FEE700BF00ED00E00400FA05F7B504465C
:102A10000D461846012116461F4600F0C7FA02A9C6
:102A2000102002238DF8070021F8046D28468DF848
:102A3000063000F0F7F900212560A680A7606E61DE
:102A40002173E1812161FEBD01290368828805D0DF
:102A5000022905D1D9684A40DA6070471A61704787
:102A60005A61704708B5042000F0C4F9084B4FF4D0
:102A70007A701A68074BB2FBF0F14A1E0649F02043
:102A80005A6081F82300002207209A60186008BD70
:102A90003400002010E000E000ED00E00120FDF730
:102AA000E7BF08B545F2555000F012FA002000F0DB
:102AB00015FA40F6B83000F017FA4FF48070012193
:102AC00000F0A4F9BDE8084000F014BA074B084A2A
:102AD00008481360C11A084B08481960084A094998
:102AE00010600B1A08480360704700BF00580008C8
:102AF000E80200202C590008EC02002000540008D5
:102B0000E40200201C540008F002002001F0F2B999
:102B100001F0DCB9FFF7DABFB0F1006F06D3044B68
:102B2000081898428CBF0020012070470020704791
:102B3000FFFF010838B50C460546084600F0ECF8E2
:102B4000A37803F0FC000DB940F001006178A0709B
:102B500001F00F0242F0200320466370BDE83840C8
:102B6000FEF7B5BE1A4B70B505461C6801F0C8FDEE
:102B700048B9184A184992F857302078CA5C8242FE
:102B800001D33F280DD9204600F09DF805F00F0035
:102B900040F01005214600206570BDE87040FFF749
:102BA000C9BF01F04FFD90B905F00F05204645F073
:102BB0001005667800F087F86570204601F04CFD3E
:102BC000012804D02046214600F0A6F8667070BDAA
:102BD000D002002020030020DF4F0008FEF752BE85
:102BE00010B50C4600F098F8292320466370BDE824
:102BF0001040FEF76CBEFEF79FBEFFF719B908B58F
:102C00000120FEF735F818B1BDE8084001F00ABD13
:102C100008BD002001F0E6BCC30710B5044601D58D
:102C2000FFF7F7FF04F02000C4B21CB1BDE810406C
:102C3000FFF7E5BF10BD000010B50C4C63687BB119
:102C40005A7802F00F0040F02001597063689A78BA
:102C500042F0010098706068FEF739FE0021616063
:102C60000020BDE8104001F0BDBC00BF20030020E3
:102C700001F03CBD01F029BD10B590F90230002BE8
:102C800004DBC478012204F08F0304E0C27922F04F
:102C90007F04E3B2002280188279447902EB042099
:102CA00082B20A806BB1802B04D1002A14BF80202D
:102CB000902010BD03F08C0184290CBF1846FF2022
:102CC00010BD184610BD0378172B02D8C279110722
:102CD00016D0022B05D9C15CC218013B5170DBB282
:102CE000F7E7837803F00C0242F03001037A817039
:102CF0000178C370A1F108024B1C02720370704787
:102D000022F00F01083B0B43C371837803F00C02E0
:102D100062F04F018170704710B590F90230002BBE
:102D200013DBC278032304789C4205D9C418647865
:102D3000CC540133DBB2F6E7CA710278531E0B7034
:102D400042784A708078887010BD884204D1C87972
:102D500020F00F03CB7110BD002302789A42F6DBFE
:102D6000C25CCA540133DBB2F7E7EFF3128070475D
:102D700080F311887047000040F0BF60024B40F4C0
:102D80000031D960704700BF00ED00E0C37810B596
:102D900003B3164CE168CB43C3F302244178C4F17A
:102DA000040201FA02F10F2222FA04F28478037875
:102DB00022400A43110103F16043CAB203F56141A5
:102DC00081F800230078012200F01F03410902FA74
:102DD00003F007E00078012200F01F03410902FA26
:102DE00003F02031024B43F8210010BD00ED00E05C
:102DF00000E100E0044B04281A680CBF42F0040212
:102E000022F004021A60704710E000E0044B5A6898
:102E100009B1104301E022EA00005860704700BF8A
:102E2000002004E0CB78F0B5DA0648BF8A7809883C
:102E300003F00F0548BF154311F0FF0F1ED00468C3
:102E40000022012707FA02F707EA0106BE4211D164
:102E500097004FF00F0C0CFA07FC05FA07F724EA6D
:102E60000C04282B44EA070401D1466102E0482BF8
:102E700008BF06610132082AE3D10460FF2920D986
:102E80004468002202F10806012707FA06F707EA5C
:102E90000106BE4211D197004FF00F0C0CFA07FC4F
:102EA00005FA07F724EA0C04282B44EA070401D1A9
:102EB000466102E0482B08BF06610132082AE1D1D1
:102EC0004460F0BD836819420CBF002001207047A8
:102ED000014B1860704700BF00300040014B586044
:102EE000704700BF00300040014B9860704700BF42
:102EF00000300040024B4AF6AA221A60704700BF19
:102F000000300040024B4CF6CC421A60704700BFC4
:102F1000003000401F4B10B55A6802F00C01042924
:102F200003D0082904D01C4A00E01C4A02600FE0CC
:102F30005C685968C4F38342941CC90301D41849DE
:102F400004E05B6899034CBF134914494C43046087
:102F5000104B14495C68C4F303128C5C026822FABB
:102F600004F242605C68C4F302240C5D22FA04F4AB
:102F700084605C68C4F3C224095D22FA01F2C26075
:102F80005B680949C3F38133CB5CB2FBF3F20261A6
:102F900010BD00BF0010024000127A000024F400AF
:102FA00000093D002400002020000020044B9A6905
:102FB00009B1104301E022EA00009861704700BFA8
:102FC00000100240044BDA6909B1104301E022EA23
:102FD0000000D861704700BF00100240002100F0DF
:102FE00004B80D4B5B58435004310C480C4B42184D
:102FF0009A42FFF4F6AF0B4A00F003B8002342F800
:10300000043B094B9A42FFF4F9AF00F011F801F0CC
:103010004BFDFDF76DFA7047885200080000002054
:1030200038000020380000207C070020FFF7FEBF9A
:103030002F4B82B01A6842F00100186059682D4A7F
:103040000A405A60186820F0847121F480321A60B6
:10305000186820F4802119605A684FF41F0122F487
:10306000FE0000225860996000920192186840F4B6
:10307000803119601E4B1A6802F4003001900099EB
:103080004A1C0092019818B90099B1F5A06FF1D1CE
:103090001B6813F4003218BF012201920198012825
:1030A00005D015484FF00061816002B070471349A8
:1030B0000B6843F010020A60086820F003030B60FD
:1030C0000A680A60A1F58051486848604B684B6007
:1030D0004A684A60486820F003034B604A6842F03F
:1030E000010048604B6803F00C02042AFAD1D8E7CB
:1030F000001002400000FFF800ED00E00020024058
:1031000070B500220A4C34F832307BB198420AD3B1
:1031100004EBC20446186588013EAE4203DCC11AC6
:103120006068401870BD0132D2B2EBE7184670BD3E
:103130007C4B00080123002100FA03F201334A40CE
:10314000D2B2082BD1B2F7D122F07F0200F07F007B
:10315000014902430A707047DC020020044B00F072
:103160000100197821F001021043FFF7E3BF00BF0F
:10317000DC020020F8B506460C4641F60F5514B3A4
:10318000B4F5807F8BBF4FF48077A7B2A4F580742D
:103190000024FFF7AFFE38463246290A41EA0525EA
:1031A000431E12F8011B98B2ABB24B40C3F3031598
:1031B0006B4083EA03318DB2EBB285EA43150028F8
:1031C000EBD1F619DBE7FFF795FE2846F8BD0000C6
:1031D00010B5094B1C68607A38B90222074804F11F
:1031E0000A01FDF7CEFB0B2202E03F2161720922AA
:1031F0002270012010BD00BFD0020020DD4F00086A
:1032000010B5437A0446342B02D90020607210BDF9
:1032100000F10A00FDF790FB617AFFF771FF0028CB
:10322000F3D010BD084B10B51C682046FFF7E8FF2F
:1032300020B104F10C01627AFDF7A3FB607A0B3038
:103240002070012010BD00BFD00200200D4B10B532
:103250001C682046FFF7D4FF014640B104F10C0082
:10326000627AFDF78EFB04208021FDF785FA06487F
:10327000017801F00402D0B218B1BDE81040FFF7A8
:10328000D1BF10BDD0020020DD02002013B50A4BD3
:103290000DF106021C68607AA17A00F0F7FC00B913
:1032A000A07204F10B00BDF80610FDF74BFB0C20DB
:1032B000207001201CBD00BFD002002008B5054BC6
:1032C0001868417A8B0603D104204021FDF754FA97
:1032D000002008BDD002002038B50F4B0F48002257
:1032E0001C6802700D4D297802290DD80C4B042260
:1032F00003EB810004F10B01FDF733FB012803D040
:103300002A78501C2870EDE704490A220B78012026
:10331000A372227038BD00BFD0020020F40200204A
:103320000059000810B50C4B1C68A37A022B03D877
:103330000A4A1078984202D9FF23A37207E008498D
:1033400004F10B0001EB83010422FDF71AFB0A22B2
:103350002270012010BD00BFD0020020F402002026
:103360000059000838B50D4B0D4800221D68027049
:103370000B4C2178022908D80A4B042203EB810068
:103380000949FDF7EEFA012804D12846BDE8384086
:10339000FEF7D2BA2278501C2070E9E7D002002054
:1033A000F402002000590008C84C0008054B0649EB
:1033B0001868064BFF220A701A7822F0040119706F
:1033C000FEF7BABAD0020020F4020020DD0200208D
:1033D00030B50346184600240578FF2D0AD08D42EB
:1033E00002D105892A4209D10134E4B20C2000FB44
:1033F0000430F1E74368002BECD1184630BD0000E3
:10340000F8B51A4B07461C682046FEF707FB064630
:10341000314617483A46FFF7DBFF054650B906F03C
:10342000C000802813D112480B213A46FFF7D0FF85
:10343000054660B100212046FEF70AFB6968304668
:103440008847012808D002D302280ED108E0204680
:10345000BDE8F840FEF770BA20466978FEF7F8FA42
:103460002046BDE8F840FEF732BAF8BDD002002091
:1034700004510008104B10B51C682046FEF73EFBB7
:1034800080280AD001D850B111E0902803D09128AB
:103490000DD1482002E04D2000E03A206070204627
:1034A00000F087F82046BDE81040FEF710BA20462D
:1034B000BDE81040FEF740BAD002002010B50F4B17
:1034C0001C6894F90700002810DA3E216170601D25
:1034D000FDF732FA08B1627800E04F22A3786270FB
:1034E00003F01000C1B209B945226270204600F015
:1034F00060F82046BDE81040FEF7E9B9D002002090
:103500000B4B10B5597D044600F04CF8FDF764F8FC
:10351000FDF712FA0146E01CFDF714FAE07920F0FD
:103520000F012046E171BDE81040FEF7D0B900BFA1
:10353000D8580008064B1868C179837861F07F027B
:1035400003F00C01C27161F04F028270FFF7D8BF27
:10355000D00200200A4B10B51C680021601DFDF749
:10356000F1F9A278E07902F00C0360F07F0163F0DA
:103570004F00A0702046E171BDE81040FFF7C0BFCA
:10358000D0020020064B1868C179837801F07F02D1
:1035900003F00C01C27161F04F028270FFF7B0BFFF
:1035A000D0020020C37923F0700141F01002C271F3
:1035B0007047C37903F07002702A1CBF23F07003B8
:1035C000C37170470A4B10B51C682046FEF76EFAAF
:1035D00020B12046BDE81040FEF7AEB92046FEF708
:1035E0007BFA0028F5D12046BDE81040FEF76FB900
:1035F000D0020020074B10B51C6800212046FEF7C2
:103600005FFA20460021FEF76BFA2046BDE8104025
:10361000FEF75DB9D0020020154B37B51C68204677
:10362000FEF744FA00BB1348C17D01291CD1124AA0
:10363000137803F00400C1B2B1B92046FEF74CFA8A
:1036400090B9651D2846FDF777F90DF10601FEF7E3
:1036500049FC012808D12846BDF80610FDF772F98B
:103660002046FEF734F902E02046FEF765F93EBD3C
:10367000D0020020D85800086E01002073B517480A
:10368000174BC17D1C6801291DD1164A157805F01C
:103690000403DDB2BDB9661D3046FDF74DF90DF1ED
:1036A0000601FEF73BFC01280DD120462946FEF716
:1036B00007FA20462946FEF713FA3046BDF80610F1
:1036C000FDF740F905E0A1787E2041F0010260702D
:1036D000A2702046FEF7FBF87CBD00BFD85800085A
:1036E000D00200206E01002010B50023044651F8DE
:1036F000230038B1A34205D0107801330130DBB28A
:103700001070F4E710BD000038B50C4600230B70B4
:10371000224607490546FFF7E7FF40B920782246D1
:10372000291AC8B20349BDE83840FFF7DDBF38BDEC
:10373000EC4B0008084C000830B5002410F8345059
:1037400095B11AB91D782D19A94200E0AA4214BFFB
:10375000002501252DB1197800EBC40062181A70FC
:1037600030BD0134E4B2E9E71A782846A4181C7089
:1037700030BD000038B54A788379044662F300030F
:10378000837148780D46DAB2C0F3801161F34102CB
:103790006FF38302A2716B78C3F3450000F0070159
:1037A0004A1E042A5CD8DFE802F003110C1E050053
:1037B000291D16E0A379022060F38303A3716968D1
:1037C0000FE0A379012262F38303A3716878C0F349
:1037D000450101F01003DAB2696812B148688968DE
:1037E000206161610EE000F01001CAB2696832B177
:1037F0004B6813B1002098472061686881680120F8
:103800008847606163695BB36A78C2F3450000F082
:103810001001CAB212B90123638116E0A07900F049
:103820000C0108290ED06B6800F002001A88C1B2A2
:10383000628101B92361206904F10C010222FDF7C4
:10384000A0F802E02046002198476289012A09D1A8
:10385000A07906496FF34100A0712161A28102E0C5
:10386000002200E0012250B238BD00BFB85100086C
:1038700037B500238DF806308DF80730827904467D
:103880004381C37002F0FE0063F38300A071E37113
:1038900020780DF10601FFF737FF08B9002028E076
:1038A000A17862780DF10703FFF746FF054600286F
:1038B000F4D001789DF807306170A3702046294646
:1038C000FFF758FF0028E9D06A78A07962F300007A
:1038D000C1B211F0010308BF63F34101A07108BF39
:1038E000A171AA78034902F03F000B5CE0702371DC
:1038F00001203EBDBA51000808B5C179034601292F
:1039000002D14279012A02D80020D87108BD8279FB
:1039100002F00C02082A04D080699989FDF712F898
:1039200001E043699847022008BD000010B5264A0F
:10393000C3780446D05C0BB1207101E001212171F4
:1039400021796379E279B3FBF1F0824201D9002356
:10395000E371E2792389981862890138904201DD88
:103960000020E071E07938B1A2891818013890423E
:1039700002DD0132D01AE071E2791AB3A079C0F306
:10398000810001280CD0022813D0B0B94A436069E5
:10399000013B01FB0300D2B2A169FCF7F2FF0CE08E
:1039A00000206369A1699847012806D00021E171D0
:1039B00003E062692046012190472279E079504373
:1039C000C0B210BD104610BDBA5100088161018916
:1039D00009B9FFF791BFFFF7A9BF000038B51D4B2C
:1039E0001D4D1C68A07AE17A2870697021B9227B8C
:1039F00002F00F03237304E02846FFF739FF002885
:103A0000F5D03220687104F10C00FCF795FF227BA1
:103A100020F4704113092981EB7125780D2D02D016
:103A20000D490020C8710C4D04F10E012846A96112
:103A3000FFF7CCFF0D30C0B22070227BEB7902F093
:103A40000F01002B08BF0D2041EA031220702273E2
:103A5000012038BDD0020020F802002013B5044632
:103A60000846FCF769FF63680B4A23F47D0121F0E7
:103A7000FF039342ADF8060002D16189814202D270
:103A80000020E07106E00DF1060021690222FCF73A
:103A900078FF02201CBD00BF0002020173B52D4A51
:103AA000C3780446D35C42790371C0790E46B2FBF9
:103AB000F3F1884201D90025E571E07925892918BB
:103AC000481E6189884201DD0020E071E1794B43A5
:103AD0009A4201D00023E371A27912F0010008BFDD
:103AE000E071E379002B32D0E918481EA1898842A1
:103AF0000DDD12F0020201D1E27108E0013D5B1917
:103B000002A820F8023D21690222FCF73AFFA079C1
:103B1000C0F3810010B1012814D10CE02379E279BF
:103B200025895A436169013D304603FB0511D2B234
:103B3000FCF727FF06E0626931469047012801D073
:103B40000021E1712379E0795843C0B200E01846C2
:103B50007CBD00BFBA51000803890BB9FFF77EBFD7
:103B6000FFF79CBF38B5184B184D1C68A07AE17A56
:103B70002870697021B9227B02F00F03237304E0DF
:103B80002846FFF775FE0028F5D0204610F80C1BDC
:103B90000D396971FCF7D0FE227B20F4704028813A
:103BA000130904F10E010948EB71FFF7D5FFE9791C
:103BB00019B9207B00F00F0222730D232370BDE89A
:103BC0003840FFF70BBF00BFD0020020F8020020F2
:103BD00038B5134B134D1C68A07AE17A227B28700C
:103BE00028466970AA70FFF743FE6B78A878E372E5
:103BF0002073A979EB7811F0010F698914BF802235
:103C0000002242EA03000A056073110D04F10E0060
:103C1000FCF798FE1020FF2320702374012038BD8C
:103C2000D0020020F8020020014602480122FCF7E1
:103C3000A8BE00BF2252000873B50E4605461421E7
:103C40000420FCF799FD3378032B01D9FF2419E0F8
:103C50002A78042A15D80C4903EB820011F8103099
:103C600001EB4004647802A8012200F8013D3146CE
:103C7000FCF787FE402C05D16C780B2CE6D840343D
:103C800000E0002420467CBDFA51000807284FF0D0
:103C900000009CBF10800120704708B500F03AFD7D
:103CA0003420BDE8084000F049BD10B50446FFF7D8
:103CB000F4FFFFF71FF900F0EFFE204000F086FD53
:103CC000042807D1FFF716F900F030FDFFF712F9CD
:103CD000012010BDFFF70EF900F028FDFFF70AF9EB
:103CE000002010BD2DE9F0410D4617468046FFF734
:103CF00001F9FFF7D2FF47EA0503DB071AD42C4688
:103D0000661B36B2701CB8420DD2FFF7F3F808EB11
:103D100006014A7818F80630204643EA022100F0EE
:103D200039FD0234ECE700F001FDFFF7E3F8012074
:103D3000BDE8F08100F0FAFCFFF7DCF80020BDE8F8
:103D4000F08100002DE9F8432F4C0746266800F06B
:103D5000A3FE06402068841BA5B2FFF7CBF8002025
:103D600082B2AA4204D2815D284A81540130F7E729
:103D70001FFA84F8264C2388984400F091FE21888D
:103D8000804505EB01001FFA80F818D900F088FE85
:103D9000C0EB0803238000F083FE1B4C1FFA80F861
:103DA000D4F8009000F078FE00EA0909C4F8009009
:103DB00000F076FE09EB0001216000230EE00022F6
:103DC0002280FAE7134A11481168012F91F800E0A8
:103DD00000F804E001D04C1C14600133E81884B2F0
:103DE0004445EFD300F05CFE85B2FFF783F8AC42A8
:103DF00005D2325D054B1A550134A4B2F7E7BDE890
:103E0000F843FFF777B800BF140300207C030020BD
:103E10001C03002018030020F8B5274B054618683E
:103E2000B0F1006F01D345B90DE0244A148824187D
:103E300000F02EFE8442F6D9F8BD2148017841F009
:103E40000803037023E01F491B4B1C4A08681288B3
:103E50001968FCF786FD0128EFD1F8BD1949164E07
:103E60000868346890F800C02778BC4514D028460C
:103E7000FFF768FF2046FFF718FF00F00DFE044033
:103E800000F00EFE214602460F48FFF72BFF0B4ABB
:103E90001388002BE2D108E00134013B3460138029
:103EA000002DF4D1421C0A60F1E70548017821F0A9
:103EB00008020270F8BD00BF140300201C0300209C
:103EC0006E010020180300207C03002007B502AB20
:103ED00003F8010D04480360044B012019600449F4
:103EE0000A80FFF799FF0EBD18030020140300207D
:103EF0001C030020044B18600448016004490020A2
:103F00000A80FFF789BF00BF1803002014030020B8
:103F10001C03002070B5694C052294F8513002FB57
:103F20000030674B1A5C1009C2F30303013884F8B0
:103F30005130062800F2BE80DFE800F0042DAA040C
:103F40000DB60F0066685D4D00246EB90120FCF7C8
:103F500039FE85F851600023ADE061680029F1D198
:103F6000564A82F85110A5E095F8540009280AD95C
:103F700020463146FEF7DEFD0120FCF723FE6C6093
:103F800085F8514096E001204FF47A71224685F879
:103F90004A40FCF727FE494A92F85010002940F0A9
:103FA000898082F84B10516892F84A300C785D1C79
:103FB000A54292F8570034D1042801D0402D0FD8E3
:103FC00013F03F003D4A08D13BB101249B0982F820
:103FD0004B4043F0080482F84E4040F0400307E0B5
:103FE000032807D10120D02482F84B0082F84E40EC
:103FF00082F84D303148022280F84A20FF222F4BB0
:104000000C7893F84A00844205D30C5C013062407E
:1040100083F84A00F3E7042183F84C2083F8511019
:1040200027E0042801D0402C0FD813F03F00234A8A
:1040300008D13BB1012482F84B409C0944F00804AC
:1040400082F84E4060F07F0003E003280CD11BB9DA
:10405000802082F84D0007E0012082F84B00C0204C
:1040600082F84E0082F84D30CA189178134B83F8CD
:104070004C10124B93F84A2093F84B10501C83F8C5
:104080004A008A1C012083F84B2000F01BF811E045
:10409000C8096168FEF74EFD0120FCF793FD00237F
:1040A000636084F8513005E001204FF47A710022FA
:1040B000FCF798FD012358B270BD00BF200300201B
:1040C0003052000810B5164B032193F8502001FB25
:1040D0000020144A105C0109C0F30302481E0128A5
:1040E00083F850201BD893F84B40611ECAB283F866
:1040F0004B206CB90C4840F22661224683F85040B0
:1041000000F0E6FB04202146BDE81040FFF702BFA7
:104110009B1893F84C00BDE8104000F0A9BC10BDFE
:1041200020030020275200080044004010B5084B2F
:1041300093F850204AB9012483F84C00204683F8B4
:104140004B40FFF7BFFF204610BD002010BD00BF51
:104150002003002038B50D4D0024204640F27E415A
:10416000082285F8504085F8514085F85440FCF706
:1041700039FD6868032385F8523028B102202146B2
:10418000BDE83840FFF7C6BE38BD00BF20030020A1
:10419000F8B5904C904B94F852200D4602EBC000BD
:1041A00003EB40014A7813F81030501E84F8523067
:1041B000102800F20B82DFE810F01C001100210033
:1041C0009800EB00E7011F000902FD01000209024F
:1041D00009020902090230007700DB0194F854005B
:1041E0000C2803D87B4A431C82F854300120FFF787
:1041F0009DFF00203221E4E10220F8E7032D40F08A
:10420000E581022584F852502020002584F858507A
:10421000FFF78CFF28460521D3E194F858100429B4
:1042200000F2CD81DFE801F0032B2E383C00FE2D9B
:1042300006D10123032284F8583084F85720BEE1C8
:1042400005F0070107290AD1624B00220120042151
:1042500083F8562083F8570083F85810AFE105F033
:10426000E002402A1CD15B4B0420022105F01F050F
:1042700083F8580083F8571083F856509FE184F86C
:10428000565009E04B2D0BD10422002384F857200F
:1042900084F85630032000E0042084F858008EE1B2
:1042A000BDE8F840FEF7C8BC94F85800494D28B165
:1042B000022816D1012385F8573012E00321082285
:1042C000FCF790FC20240D2085F84D4085F84C002B
:1042D0000224012085F84B40FFF7F4FE85F8584092
:1042E000F8BDBDE8F840FFF735BF05F00700072827
:1042F0000ED10020082240F27E41FCF773FC15F03D
:10430000F80F00F063813349002281F85020F8BD96
:1043100005F07F030B2B02D10320294646E105F06F
:104320005302102A2BD12B4CA67A94F8551085EA0B
:10433000060717F0DF0F14BF6FF3000141F0010112
:10434000002601200423082284F85510207203213E
:10435000304684F85230A57284F85360FCF742FC72
:1043600094F855202B0666F341021A4F84F8552025
:1043700005D497F8551041F0020087F85500F02D4C
:1043800001D10721F0E0F12D40F020810521EBE083
:10439000217A104B3F2919D88C1C1819017AA9428F
:1043A00005D093F855206FF3000283F85520094B90
:1043B0001C192572187A1C46411CCAB2042A1A72AA
:1043C0000CD100200146FFF7A5FD07E0072283F886
:1043D0005220F4E0200300204E520008207A7C4B4B
:1043E000062873D193F85150042D1ED15A68997A3A
:1043F000947884EA010010F0DF0F16D1DD7AD478CA
:10440000A54212D1187B117988420ED15D7B547977
:10441000A5420AD1987B9179884206D1DD7BD27979
:10442000954202D1032483F85340694D95F85330E7
:104430006BB96848017801F00802D4B23CB113208E
:10444000FFF774FEFF230220AB7285F8530095F846
:10445000535095B96048FCF76FFA0446FCF7BCF876
:10446000FCF76AFA844208D15C4B1A7802F0020128
:10447000C8B210B942F002051D70554D95F8534071
:1044800024BB05F10800FEF7B8FB00F00803DAB220
:10449000044662B1FEF7A2FB286018B1012085F83E
:1044A000530004E002210C4385F85310E4B2484B5A
:1044B0001A680AB9FF21997204F00400C3B22BB143
:1044C000474A04F00304105DFFF730FE404991F8BD
:1044D000550000F00203DCB214B10A7C093203E09B
:1044E000CA7B02F00F020832097A00200729384CF3
:1044F00066D9914264D3082240F27E41FCF772FBF8
:1045000001200021FFF706FD94F8530001282AD16D
:10451000207A0221FF2381422D4A05D85218127AAF
:1045200001315340C9B2F6E7411C5118087A98424C
:1045300012D192F85500C0070ED4927A02F02000F2
:10454000C2B212B183F020030B72214901F10800BD
:104550000968FEF745FB03E01D4B1868FEF74BFBAF
:104560001B4A002010600321194B83F85210F8BD3C
:1045700094F8551084F8595041F0100284F85520F1
:10458000002040F27E411CE0217A20684B1C2372FF
:1045900020B1FEF730FB0E4800220260002040F2FE
:1045A0007E410822FCF71EFB01200021BDE8F840F7
:1045B000FFF7B0BC1320FFF7B9FDFF20A072002069
:1045C00003210822BDE8F840FCF70CBBF8BD00BF92
:1045D000200300206E0100202B030020DD020020BC
:1045E0002352000838B50E4C00F094F994F8553079
:1045F00000250A206FF3C30384F8540032212846B3
:10460000082284F8553084F8565084F85750FCF747
:10461000E9FAFF2184F8525084F85050A17238BD55
:104620002003002010B5FEF7A0FB04461020FEF783
:104630009FFB05200021FFF76DFC2046BDE81040E0
:10464000FEF796BB034B93F85100003018BF0120D2
:10465000704700BF20030020F8B50646FEF785FB33
:1046600007461020FEF784FB0B4B93F8514064B9CA
:104670005D685DB9304601215E60FDF799F9022061
:104680002946FFF747FC012400E000243846FEF7E6
:104690006FFB60B2F8BD00BF20030020014601207F
:1046A000FFF776BD064B014693F8550000F008026F
:1046B000D3B20BB9F72902D10220FFF769BD7047C9
:1046C000200300200020FFF7FDBC10B5FEF74DFBD6
:1046D00004461020FEF74CFB00200146FFF758FD72
:1046E0002046BDE81040FEF743BB0000034B93F8A3
:1046F000540009288CBF00200120704720030020AF
:10470000034B93F854000B2894BF002001207047FE
:1047100020030020034A044B02F188305A6058609D
:10472000704700BF2301674500200240024B1A6911
:1047300042F080001861704700200240014BD860B1
:10474000704700BF00200240084BDA68D20709D446
:10475000D868400708D4D96811F0100F0CBF0420A6
:10476000032070470120704702207047002002405C
:1047700010B50446FFF7E8FF012806D11CB1FFF78A
:10478000E3FF013CF8E7052010BD002C08BF052021
:1047900010BD000070B505464FF400500E46FFF7FF
:1047A000E7FF04280ED1084C236943F00100206183
:1047B0002E804FF40050FFF7DBFF226941F6FE71B7
:1047C0001140216170BD00BF0020024038B5054690
:1047D0004FF43020FFF7CCFF042812D1094C236995
:1047E00043F002002061656121694FF4302041F0FF
:1047F00040022261FFF7BCFF216941F6FD730B40C7
:10480000236138BD00200240038A30B50D460446BE
:10481000EA8898B220F4405111432182A389288963
:10482000A98823F4B05340EA0102688923F00C01FF
:1048300002430804030C1A4391B2A181A08AAA89F9
:1048400083B223F4407187B01143A18201A8FEF71F
:1048500061FB1848A38984420CBF0498039819B2DD
:1048600000294FF019032A6803FB00F001DA510018
:1048700000E09100B0FBF1F16423B1FBF3F212010F
:10488000100903FB1011A08900B2002806DAC90044
:104890003231B1FBF3F303F0070005E009013231D7
:1048A000B1FBF3F303F00F00024390B2208107B095
:1048B00030BD00BF00380140838919B199B241F47D
:1048C000005303E023F400510A04130C8381704762
:1048D000C1F3421310B5012401F01F01A34204FAF1
:1048E00001F101D10C3004E0022B01D1103000E0C5
:1048F0001430036812B143EA010201E023EA010225
:10490000026010BDC905CA0D828070478088C1054C
:10491000C80D7047F0B5012187B04FF40030FEF7A5
:1049200051FB04200121FEF741FB01200146FEF767
:104930003DFB26234FF4407001258DF804300026FE
:10494000FEF71AFA314C01A88DF805508DF8066073
:104950008DF80750FEF71AFA0421032018228DF86B
:1049600002000F46ADF80010204669468DF803207E
:10497000FEF758FA082320466946A4F54444ADF8EA
:1049800000308DF80370FEF74DFA4FF496404FF467
:1049900080510C234FF480620290ADF80C10204639
:1049A00002A9ADF81020ADF81230ADF80E60ADF8E8
:1049B0001460FFF729FF20462946FFF77DFF208876
:1049C000228881B293B221EA030020802A46204641
:1049D00040F22551FFF77CFF20462A464FF45871DC
:1049E000FFF776FF204628212A46FFF771FF204671
:1049F0002A464FF4B071FFF76BFF204640F2266164
:104A00003246FFF765FF07B0F0BD00BF0008014068
:104A1000164B10B51C88A4B204F0400290B210B13D
:104A20009B89FFF74FFE14F02B0F1ED00F48FFF7A6
:104A30006DFFE30701D5DF2004E004F002018BB233
:104A400023B17F20BDE81040FFF72CBE04F0080220
:104A500091B209B1F720F5E704F02004A4B224B123
:104A6000C0B2BDE81040FFF719BE10BD00440040C1
:104A700010B5064C01462046FFF744FF204640F2A1
:104A800026610122BDE81040FFF722BF004400402C
:104A900000487047FFFF01080048704700FC01080C
:104AA0004FF480607047000038B50E4D0E4B002467
:104AB000E81A8510AC4205D00B4951F824209047E4
:104AC0000134F7E700F016F80849094A541AA5100E
:104AD0000024AC4205D0054B53F824008047013434
:104AE000F7E738BD80520008805200088052000865
:104AF00084520008F8B500BFF8BC08BC9E46704759
:0C4B0000F8B500BFF8BC08BC9E4670472A
:104B0C00010000000200000004000000080000008A
:104B1C001000000020000000400000008000000099
:104B2C0078000020810000208200002083000020FB
:104B3C0084000020850000208600002087000020D3
:104B4C00880000208C00002010C000004665622008
:104B5C00203820323032312031343A31323A35314A
:104B6C000000000000000000000000000000000039
:104B7C000010CF10005800080000000000000000DA
:104B8C000102040000030000050700004127000893
:104B9C0006070000B11D000807040900E8580008CA
:104BAC000D051500F45800081B05180024590008C1
:104BBC0000000000000000000102040000040000DE
:104BCC0005070000AD27000806070000D91D0008E6
:104BDC000D041500F958000800000000000000004A
:104BEC00F04E0008304E0008784E0008B44E000815
:104BFC008C4B0008C44B000800000000A44F0008B8
:104C0C000000000000580008090004000500000026
:104C1C00ED0A00080100000002000000550E00081B
:104C2C000100000009000000591C000801000000F0
:104C3C00040000007D2900080100000000000000B5
:104C4C00CD1900080100000006000000A90D0008A5
:104C5C0001000000070000001D1700080100000003
:104C6C0003000000192C00080100000001000000E6
:104C7C00B5130008020000000C000000B504000889
:104C8C00010000000D00000061040008020000009B
:104C9C00FF00000000000000000000000100020006
:104CAC0004000800100020004000800000010002F9
:104CBC00000400080010002000400080FFFFFFFFF0
:104CCC0001000100E80301003C0001003C0014025B
:104CDC00140F01009401940F01002C002C0F020002
:104CEC00031A031F00000318031F0000003A003FC3
:104CFC000F000038003F03000039003F0D00001A80
:104D0C00003F04000018003F04000019003F0E0093
:104D1C001406141F07009405941F07000006000FCB
:104D2C0008000005000F08000004000F0900000037
:104D3C000000000001010101010101010203040650
:104D4C00080A0E0507090B0C0D000440DF4080819A
:104D5C0082000840DF4088898A008441DF410901D4
:104D6C0002008440DF41095152008541DF41002897
:104D7C0028004403DF030011A2004405DF050019DD
:104D8C001A004401DF07002122004400DF0100016A
:104D9C000200C609DF0900014100C601DF0900015C
:104DAC003000C600DF0100010200C701DF0900016D
:104DBC000200C719DF1900304A00C709DF1900309B
:104DCC003000C700DF01000102000C001C00003A9B
:104DDC005A0018101C1000304A0018001C1000302B
:104DEC003000000000000001020000000100020081
:104DFC00030000030201020300030300030103008C
:104E0C00030002000100020003000000000100008A
:104E1C00000000000100010203000000020102007A
:104E2C00030000000102040000010000050700005F
:104E3C00AD25000807040900DC58000817290400F8
:104E4C00604E00081B0518000C59000800000000FB
:104E5C0000000000FF00000055050008251E00089A
:104E6C00FF00000069050008812000080102040011
:104E7C0000020000050700001526000807040900C1
:104E8C00E0580008172814006C4E00081B05180089
:104E9C00145900080000000000000000FF00000092
:104EAC0055230008552300080102040000090000E6
:104EBC00050700007D26000807040900E4580008D7
:104ECC0017281200A84E00081B0518001C590008D2
:104EDC0000000000000000001400000000000000B2
:104EEC00684F0008010204000000000008050400DF
:104EFC00FE58000819043000544B00080B0916002A
:104F0C00C50500080C090400312500080E05110028
:104F1C00DD0200200F051A000C54000813041400C5
:104F2C001654000833050200ED580008360733000C
:104F3C003925000838020400003700004E05160021
:104F4C0006540008F0241100E44E0008530412002B
:104F5C00DD4F0008000000000000000044656320E5
:104F6C00203820323031372031313A35373A34312C
:104F7C0000021100180E09030513305461706B6F99
:104F8C000000000000000000150000000000000000
:104F9C00584B000810C1000001020400FF980000EB
:104FAC0033043000A04F000834040C00874F000875
:104FBC0035240100944F000836040C007D4F000886
:104FCC003C040C00704B00080000000000000000C6
:104FDC000007B03F3F3FFFFF89410000013400084C
:104FEC0001000000944A0000013400080400000095
:104FFC008D4C0000013400081000000085000000FA
:10500C00653300080000000087000000AD33000885
:10501C00000000007A320000BD1000080000000003
:10502C007E000000CD10000800000000723200006D
:10503C00ED100008000000003A7A00001936000854
:10504C00000000003E7E0000193600080000000041
:10505C00322200007D360008000000004D8D00005B
:10506C00C5350008000000004C2C0000F535000888
:10507C00000000004A2100003D170008000000005D
:10508C0049890000E11600080000000041410000C1
:10509C00F1160008000000002949000075340008D2
:1050AC00000000002E4E0000BD340008000000007F
:1050BC0021110000853500080000000022110000BD
:1050CC0035350008000000002C1100005535000893
:1050DC000000000011110000652B00082E000000DC
:1050EC001E1E00000000000000000000FF00000079
:1050FC0000000000000000000C0D0000D131000881
:10510C00050000000809000025320008010000001D
:10511C000A0900004D320008010000000E0E0000CC
:10512C00BD32000805000000060700008D320008A3
:10513C0001000000D5D60000DD3900080500000094
:10514C00D7D60000653B000805000000D8D9000048
:10515C00D13B000805000000D1D20000D932000874
:10516C0001000000D3D4000025330008010000002A
:10517C0004050000D50D000810000000030000001D
:10518C00C70D000810000000DCDD0000F10D000868
:10519C0010000000DE000000210E000810000000CE
:1051AC00FF000000000000000000000001000A01E8
:1051BC00010202020303040404080A030507FF01A9
:1051CC0002030405060708090A0B0C0D0E0F10113B
:1051DC00121314FFFFFFFFFFFFFFFFFFFFFF02068D
:1051EC000101020101FFFFFFFFFFFFFFFFFF0000B6
:1051FC000100020003000201020102000300000092
:10520C000100010203000000030002400300000340
:10521C000003000300030311151315002132114183
:10522C0042510202010103030400720222041251D2
:10523C0052535400010203340001220304000242C1
:10524C004242010201020210060703060607010290
:10525C00030600000103020F0304040503110304F9
:10526C00070A0000010002000300070906070600F8
:04527C00070A00001D
:0452800025020008FB
:04528400010200081B
:1052880094000020E4000020D0000020F800002056
:105298000C010020A800002020010020BC000020F4
:1052A80002040608000000000102030401020304CE
:0852B800060708090024F400B8
:105400000072FFFFC0117200FFFFFF0100000000EB
:0C54100000000000000000000000000090
:105800001508000910001001100210031004100503
:105810001006100710080000000000000000000043
:105820000000000000000000000000000000000078
:105830000000000000000000000000000000000068
:10584000000900010001000200020003000300043F
:105850000004000500050006000600070007000818
:10586000000800090009000000000000000000001E
:105870000000000000000000000000000000000028
:105880000000000000000000000000000000000018
:105890000000000000000000000000000000000008
:1058A00000000000000000000000000000000000F8
:1058B0000000000000000000000000099F009F00A1
:1058C0009F009F004F004F004F004F004F0A000203
:1058D0000000000000000000007200000000100244
:1058E00000001040000010BA000010CE0006330186
:1058F000010101010072F02302000000000000001D
:10590000FFFFFFFF0000000000000000000000009B
:105910000000000000000000000000000000000087
:0C5920000000000000000000000000007B
:0400000508002FDDE3
:00000001FF
